{
  "transactions": [
    {
      "hash": "0xe8da6dcb21ed3b5c9294641c448c70b3c6cf2cf9b780dfc7bbb52e1de4c5c8b8",
      "transactionType": "CALL",
      "contractName": null,
      "contractAddress": "0x2452a22b987c7bad87d11bd69a699fff49fd819b",
      "function": "mintNft(string)",
      "arguments": [
        "ipfs://bafybeig37ioir76s7mg5oobetncojcm3c3hxasyd4rvid4jqhy4gkaheg4/?filename=0-PUG.json"
      ],
      "transaction": {
        "from": "0xe4267c260090f0cd85aae5dcf1bf581f81df81c6",
        "to": "0x2452a22b987c7bad87d11bd69a699fff49fd819b",
        "gas": "0x3b2d7",
        "value": "0x0",
        "input": "0xda86f4a900000000000000000000000000000000000000000000000000000000000000200000000000000000000000000000000000000000000000000000000000000057697066733a2f2f62616679626569673337696f6972373673376d67356f6f6265746e636f6a636d3363336878617379643472766964346a71687934676b61686567342f3f66696c656e616d653d302d5055472e6a736f6e000000000000000000",
        "nonce": "0xaf",
        "chainId": "0xaa36a7"
      },
      "additionalContracts": [],
      "isFixedGasLimit": false
    }
  ],
  "receipts": [
    {
      "status": "0x1",
      "cumulativeGasUsed": "0x5f17fe",
      "logs": [
        {
          "address": "0x2452a22b987c7bad87d11bd69a699fff49fd819b",
          "topics": [
            "0xddf252ad1be2c89b69c2b068fc378daa952ba7f163c4a11628f55a4df523b3ef",
            "0x0000000000000000000000000000000000000000000000000000000000000000",
            "0x000000000000000000000000e4267c260090f0cd85aae5dcf1bf581f81df81c6",
            "0x0000000000000000000000000000000000000000000000000000000000000001"
          ],
          "data": "0x",
          "blockHash": "0x6fb6e4ec418dd6e8e37a4708e97c5a443c6d2e64da865d18cd1cc906a9a7a3ec",
          "blockNumber": "0x9125d3",
          "blockTimestamp": "0x69016f44",
          "transactionHash": "0xe8da6dcb21ed3b5c9294641c448c70b3c6cf2cf9b780dfc7bbb52e1de4c5c8b8",
          "transactionIndex": "0x42",
          "logIndex": "0x44",
          "removed": false
        }
      ],
      "logsBloom": "0x00000000000000000000000000000000000000000000000000000000000000000000000000000000000000000000000000000000000000200000000000040000000000000004000000000008000000000000000000040000000000000000000000000000020000000000000000000800000000000000000000004010000000000000000000000000000000000000000010000000000000000000000000000000000000000000000000000000000000000000000000000000000000000000000000000002100000000000000000000000000000000000000000000000000060000000000000000000002000000000000000000000000000000000000000000000",
      "type": "0x2",
      "transactionHash": "0xe8da6dcb21ed3b5c9294641c448c70b3c6cf2cf9b780dfc7bbb52e1de4c5c8b8",
      "transactionIndex": "0x42",
      "blockHash": "0x6fb6e4ec418dd6e8e37a4708e97c5a443c6d2e64da865d18cd1cc906a9a7a3ec",
      "blockNumber": "0x9125d3",
      "gasUsed": "0x2876a",
      "effectiveGasPrice": "0xf4249",
      "from": "0xe4267c260090f0cd85aae5dcf1bf581f81df81c6",
      "to": "0x2452a22b987c7bad87d11bd69a699fff49fd819b",
      "contractAddress": null
    }
  ],
  "libraries": [],
  "pending": [],
  "returns": {},
  "timestamp": 1761701703549,
  "chain": 11155111,
  "commit": null
}