{
  "transactions": [
    {
      "hash": "0x86c68a6be78018c608e697ebb046dbbc8d8678ea73a255de9d771becf70ed2df",
      "transactionType": "CALL",
      "contractName": null,
      "contractAddress": "0x2452a22b987c7bad87d11bd69a699fff49fd819b",
      "function": "mintNft(string)",
      "arguments": [
        "ipfs://bafybeig37ioir76s7mg5oobetncojcm3c3hxasyd4rvid4jqhy4gkaheg4/?filename=0-PUG.json"
      ],
      "transaction": {
        "from": "0xe4267c260090f0cd85aae5dcf1bf581f81df81c6",
        "to": "0x2452a22b987c7bad87d11bd69a699fff49fd819b",
        "gas": "0x3da80",
        "value": "0x0",
        "input": "0xda86f4a900000000000000000000000000000000000000000000000000000000000000200000000000000000000000000000000000000000000000000000000000000057697066733a2f2f62616679626569673337696f6972373673376d67356f6f6265746e636f6a636d3363336878617379643472766964346a71687934676b61686567342f3f66696c656e616d653d302d5055472e6a736f6e000000000000000000",
        "nonce": "0xad",
        "chainId": "0xaa36a7"
      },
      "additionalContracts": [],
      "isFixedGasLimit": false
    }
  ],
  "receipts": [
    {
      "status": "0x1",
      "cumulativeGasUsed": "0x6e7eb2",
      "logs": [
        {
          "address": "0x2452a22b987c7bad87d11bd69a699fff49fd819b",
          "topics": [
            "0xddf252ad1be2c89b69c2b068fc378daa952ba7f163c4a11628f55a4df523b3ef",
            "0x0000000000000000000000000000000000000000000000000000000000000000",
            "0x000000000000000000000000e4267c260090f0cd85aae5dcf1bf581f81df81c6",
            "0x0000000000000000000000000000000000000000000000000000000000000000"
          ],
          "data": "0x",
          "blockHash": "0x1a9792356d66a6ee43643a61e99f37db2acdac99838f077890bed59a8f51721f",
          "blockNumber": "0x9124f2",
          "blockTimestamp": "0x690164b8",
          "transactionHash": "0x86c68a6be78018c608e697ebb046dbbc8d8678ea73a255de9d771becf70ed2df",
          "transactionIndex": "0x5f",
          "logIndex": "0x51",
          "removed": false
        }
      ],
      "logsBloom": "0x00000000000000000000000000000000000000000000000000000000000000000000000000000000000000000000000000000000000000200000000000000000000000000004000000000008000000000000000000000000000000000000000000000000020000000000000000000800000000000000000000004010000000000000000000000000000000000000000010000000000000000000000000000000000000000000000000000000000000000000000000000000000000000000000000000002100000000000000000000000000000000000000000000000000020000000000000000000002000000000000000000000000000000000000000000000",
      "type": "0x2",
      "transactionHash": "0x86c68a6be78018c608e697ebb046dbbc8d8678ea73a255de9d771becf70ed2df",
      "transactionIndex": "0x5f",
      "blockHash": "0x1a9792356d66a6ee43643a61e99f37db2acdac99838f077890bed59a8f51721f",
      "blockNumber": "0x9124f2",
      "gasUsed": "0x2ca36",
      "effectiveGasPrice": "0xf4249",
      "from": "0xe4267c260090f0cd85aae5dcf1bf581f81df81c6",
      "to": "0x2452a22b987c7bad87d11bd69a699fff49fd819b",
      "contractAddress": null
    }
  ],
  "libraries": [],
  "pending": [],
  "returns": {},
  "timestamp": 1761699002313,
  "chain": 11155111,
  "commit": null
}